{
  "_format": "hh-sol-artifact-1",
  "contractName": "EtherReceiver",
  "sourceName": "contracts/Contract.sol",
  "abi": [
    {
      "inputs": [],
      "stateMutability": "nonpayable",
      "type": "constructor"
    },
    {
      "inputs": [
        {
          "internalType": "address payable",
          "name": "_seller",
          "type": "address"
        },
        {
          "internalType": "address payable",
          "name": "_GameCompany",
          "type": "address"
        }
      ],
      "name": "Buy",
      "outputs": [],
      "stateMutability": "payable",
      "type": "function"
    },
    {
      "inputs": [],
      "name": "amount",
      "outputs": [
        {
          "internalType": "uint256",
          "name": "",
          "type": "uint256"
        }
      ],
      "stateMutability": "view",
      "type": "function"
    },
    {
      "inputs": [],
      "name": "gameCompany",
      "outputs": [
        {
          "internalType": "address payable",
          "name": "",
          "type": "address"
        }
      ],
      "stateMutability": "view",
      "type": "function"
    },
    {
      "inputs": [],
      "name": "getContractBalance",
      "outputs": [
        {
          "internalType": "uint256",
          "name": "",
          "type": "uint256"
        }
      ],
      "stateMutability": "view",
      "type": "function"
    },
    {
      "inputs": [],
      "name": "getamt",
      "outputs": [
        {
          "internalType": "uint256",
          "name": "",
          "type": "uint256"
        }
      ],
      "stateMutability": "view",
      "type": "function"
    },
    {
      "inputs": [],
      "name": "owner",
      "outputs": [
        {
          "internalType": "address payable",
          "name": "",
          "type": "address"
        }
      ],
      "stateMutability": "view",
      "type": "function"
    },
    {
      "inputs": [],
      "name": "seller",
      "outputs": [
        {
          "internalType": "address payable",
          "name": "",
          "type": "address"
        }
      ],
      "stateMutability": "view",
      "type": "function"
    },
    {
      "inputs": [
        {
          "internalType": "uint256",
          "name": "_amt",
          "type": "uint256"
        }
      ],
      "name": "setamt",
      "outputs": [],
      "stateMutability": "nonpayable",
      "type": "function"
    },
    {
      "stateMutability": "payable",
      "type": "receive"
    }
  ],
  "bytecode": "0x608060405234801561001057600080fd5b50600080546001600160a01b031916331790556103a9806100326000396000f3fe60806040526004361061007f5760003560e01c80638da5cb5b1161004e5780638da5cb5b1461011a578063aa8c217c1461013a578063f1d40f8314610150578063fa3c40b81461016557600080fd5b806308551a531461008b5780633d3fce35146100c857806346c33779146100e85780636f9fb98a1461010757600080fd5b3661008657005b600080fd5b34801561009757600080fd5b506001546100ab906001600160a01b031681565b6040516001600160a01b0390911681526020015b60405180910390f35b3480156100d457600080fd5b506002546100ab906001600160a01b031681565b3480156100f457600080fd5b506003545b6040519081526020016100bf565b34801561011357600080fd5b50476100f9565b34801561012657600080fd5b506000546100ab906001600160a01b031681565b34801561014657600080fd5b506100f960035481565b61016361015e3660046102da565b610185565b005b34801561017157600080fd5b5061016361018036600461030d565b600355565b600180546001600160a01b038085166001600160a01b031992831617909255600280549284169290911691909117905534600060646101c583605a610326565b6101cf9190610351565b9050600060646101e0846009610326565b6101ea9190610351565b9050600060646101fb856001610326565b6102059190610351565b6001546040519192506001600160a01b03169084156108fc029085906000818181858888f19350505050158015610240573d6000803e3d6000fd5b506002546040516001600160a01b039091169083156108fc029084906000818181858888f1935050505015801561027b573d6000803e3d6000fd5b50600080546040516001600160a01b039091169183156108fc02918491818181858888f193505050501580156102b5573d6000803e3d6000fd5b50505050505050565b80356001600160a01b03811681146102d557600080fd5b919050565b600080604083850312156102ed57600080fd5b6102f6836102be565b9150610304602084016102be565b90509250929050565b60006020828403121561031f57600080fd5b5035919050565b808202811582820484141761034b57634e487b7160e01b600052601160045260246000fd5b92915050565b60008261036e57634e487b7160e01b600052601260045260246000fd5b50049056fea264697066735822122037b0ab481317fefe07e9d1fa73139609d1d243103f0ddcd260a1a269443782ea64736f6c63430008110033",
  "linkReferences": {},
  "deployedLinkReferences": {}
}